{
  "contractName": "AwesomeCoin",
  "abi": [
    {
      "constant": true,
      "inputs": [],
      "name": "totalSupply",
      "outputs": [
        {
          "name": "",
          "type": "uint256"
        }
      ],
      "payable": false,
      "stateMutability": "view",
      "type": "function"
    },
    {
      "inputs": [],
      "payable": false,
      "stateMutability": "nonpayable",
      "type": "constructor"
    }
  ],
  "bytecode": "0x6080604052348015600f57600080fd5b50620f4240600081905550607b806100286000396000f3fe6080604052348015600f57600080fd5b506004361060285760003560e01c806318160ddd14602d575b600080fd5b60336049565b6040518082815260200191505060405180910390f35b6000548156fea165627a7a723058204ac6ace119b53dfee1ee8e18367f12ee865d76c5ad1028d498372f8fb6e004450029",
  "source": "pragma solidity >=0.4.21;\n\ncontract AwesomeCoin {\n\tuint256 public totalSupply;\n\tconstructor() public {\n        totalSupply = 1000000;\n    }\n}",
  "sourcePath": "/Users/simonfei/Desktop/awesome_coin/awesome_coin/contracts/AwesomeCoin.sol",
  "compiler": {
    "name": "solc",
    "version": "0.5.8+commit.23d335f2.Emscripten.clang"
  },
  "schemaVersion": "3.0.11",
  "updatedAt": "2019-07-13T01:53:58.486Z",
  "devdoc": {
    "methods": {}
  },
  "userdoc": {
    "methods": {}
  }
}